:020000040800F2
:10000000005000200D010008110100081301000834
:10001000290100082B010008410100080000000030
:100020000000000000000000000000005701000870
:1000300059010008000000005B0100085D01000894
:1000400071010008710100087101000871010008C8
:1000500071010008710100087101000871010008B8
:1000600071010008710100087101000871010008A8
:100070007101000871010008710100087101000898
:100080007101000871010008710100087101000888
:100090007101000871010008710100087101000878
:1000A00071010008510C000871010008C90800081E
:1000B0007101000871010008710100087101000858
:1000C000710100087101000871010008B90C0008F5
:1000D0007101000871010008FD0600081D060008F6
:1000E00071010008710100087101000800000000A2
:1000F0000000000000000000000000000000000000
:1001000000000000000000005FF808F114480047FC
:10011000FEE71EF0040F0CBFEFF30880EFF3098039
:100120007146104A1047FEE7FEE71EF0040F0CBFB1
:10013000EFF30880EFF3098071460B4A1047FEE7A2
:100140001EF0040F0CBFEFF30880EFF30980714637
:10015000064A1047FEE7FEE7FEE7FEE770470000AD
:1001600075010008270100083F010008550100083B
:10017000FEE7FFFF07B500F071F8224B224A234942
:100180008B4228D30021224B224A934228D300F0ED
:1001900071F8684601A900F08DF872B600261E4D70
:1001A0001E4C641BA410B4421DDC00261C4D1D4CCB
:1001B000641BA410B4421BDC62B6DDE9000100F050
:1001C000C7FD0646184D194C641BA410002C14DC06
:1001D000304600F02DF952F8040B43F8040BCFE73A
:1001E00043F8041BD1E755F8043B98470136DAE79A
:1001F00055F8043B98470136DCE7013C55F82430BC
:100200009847E3E700000020401C00088C00002015
:100210008C0000207C0100205802000858020008D1
:10022000580200085C0200085C0200085C0200083A
:10023000401C0008000000208C000020401C00082A
:1002400000000000000000008C0000207C01002065
:0C0250000000000000000000D5050008C0
:10025C0008B500F043F8024A024B9A6008BD00BF93
:10026C000000000800ED00E000F0B0B80B4A08B543
:10027C001168034609B90A4911601068033309492A
:10028C0023F0030303448B4206D900F03DFE0C23FC
:10029C0003604FF0FF3008BD1360FCE78C000020BA
:1002AC007C010020004C002001230360014B0B60FB
:1002BC00704700BF00000020BFF34F8F0549064B6D
:1002CC00CA6802F4E0621343CB60BFF34F8F00BFE8
:1002DC00FDE700BF00ED00E00400FA05374B82B0EB
:1002EC001A6842F001021A605968354A0A405A608D
:1002FC001A6822F0847222F480321A601A6822F48E
:10030C0080221A605A6822F4FE025A604FF41F02CF
:10031C009A600022009201921A6842F480321A60AC
:10032C001A6802F400320192009A01320092019A8A
:10033C001AB9009AB2F5A06FF2D11A6812F4003211
:10034C0018BF01220192019A012A30D11D4A11686D
:10035C0041F010011160116821F003011160116866
:10036C0041F0020111605A685A605A685A605A6822
:10037C0042F480625A605A6822F47C125A605A68BD
:10038C0042F4E8125A601A6842F080721A601A68D5
:10039C009201FCD55A6822F003025A605A6842F066
:1003AC0002025A605A6802F00C02082AFAD14FF085
:1003BC000062054B9A6002B0704700BF001002400B
:1003CC000000FFF80020024000ED00E0104B114946
:1003DC005A6802F00C02082A0AD00F4A0A605B68BD
:1003EC000E4AC3F30313D25C0B68D3400B60704707
:1003FC005A685868C2F38342C00302F1020202D465
:10040C0007484243EAE758688003F9D40248F8E702
:10041C00001002401800002000127A000800002092
:10042C0000093D0008B5FFF747FF0000F8B5434B46
:10043C005D68451B58601868002862D02C4603463E
:10044C0003F00F0214441B09FAD145EA00153B4B8B
:10045C001D603B4B5868081A59601D68002D52D01E
:10046C0002462B4603F00F010A441B09FAD140EA5D
:10047C000510334B1860334B1B68632B53D8002B80
:10048C0059D01B1B9B1A304D29695F1A2B61E868E8
:10049C001844E8602D49884237DD2C48E8602A482A
:1004AC00C1684668056805FB03F506FB01538168C6
:1004BC0001FB0731A21A264D2B69D61A2A61E8686E
:1004CC001044E860214DA84226DD214BDD60204818
:1004DC00C5684368046804FB02F203FB05258368C6
:1004EC0003FB0653C81A0B4420EAE0704AF6C772A5
:1004FC009042A8BF104623EAE3749442A8BF144666
:10050C0013E02C46A1E70246B1E712498842C6DA4D
:10051C000D491048C860C2E70E4B9842D7DA0C4B15
:10052C000C48D860D3E718461C4600F04FFB204619
:10053C0000F052FBF8BD00242046F6E794000020A2
:10054C009C000020CC000020A40000201561917EAE
:10055C00B8000020EB9E6E8108B5184B196001386D
:10056C00032826D8DFE800F00210171E012000F047
:10057C0039FB012000F04EFB114A00231361D360BC
:10058C00104A1361D36008BD002000F02BFB002043
:10059C0000F040FBF0E7002000F024FB012000F00D
:1005AC0039FBE9E7012000F01DFB002000F032FBD5
:1005BC00E2E7024B00221A60DEE700BFCC0000200D
:1005CC00A4000020B80000200D4A002313605360E3
:1005DC000C4A136053600C4A45F249711160642156
:1005EC0051604FF47A7191601361D360074A43F202
:1005FC0039001060C820506091601361D36070475F
:10060C00940000209C000020A4000020B8000020D2
:10061C000E4B1B8813F0800F16D00D4B1B6863B16B
:10062C001A7832B101330A490B6092B2074B9A80A7
:10063C007047074B00221A607047044A938923F0D5
:10064C0080031B041B0C9381704700BF00480040C3
:10065C00D0000020074B1B680BB100207047054BE6
:10066C001860054A93899BB243F080039381012063
:10067C00704700BFD00000200048004010B5174B59
:10068C001B68174A126883EA0204934208D014F0DC
:10069C00010F06D114F0020F0CD114F0040F13D17A
:1006AC0010BD83F001030D4A13600E4B187800F057
:1006BC00FFFBEFE7094A136883F0020313600A4B50
:1006CC00186800F0FBFBE8E7044A136883F00403A6
:1006DC001360064B186800F011FCE1E7EC000020F9
:1006EC00E4000020E8000020D4000020D800002006
:1006FC00294B1B8813F0800F0AD0284B1B68F3B1D1
:10070C001A78C2B1013325490B6092B2224B9A8000
:10071C00214B1B8813F0200F0CD01F4B9B88DAB297
:10072C0003F0C003802B1AD0C02B26D0402B0ED048
:10073C001B4B1A707047194B00221A60E8E7164AD7
:10074C00938923F080031B041B0C9381E0E7154B6A
:10075C001A70154A136883F00103136070479201F5
:10076C0002F47C620E4B1B781A43104B1A600E4A33
:10077C00136883F0020313607047920102F47C62E9
:10078C00074B1B781A430A4B1A60074A136883F00D
:10079C0004031360704700BF00440040DC000020DD
:1007AC00E0000020E8000020E4000020D40000203D
:1007BC00D800002042F20F73984209D94AF6E03370
:1007CC00984228BF184680B2034BA3F840007047EC
:1007DC0041F28830F7E700BF002C0140044B1B6846
:1007EC000448A0FB03201B1A00EB53008009704740
:1007FC00FC000020398113382B4A13680133136035
:10080C002A4B9B8B9BB246F67002934224D000F08D
:10081C000700274B1860F0B9244B9B8B9BB246F614
:10082C00010293423BD0214B9A8922F00802120418
:10083C00120C9A811A8C22F480721204120C1A84F3
:10084C004AF614729A8746F670029A831A8C92B200
:10085C0042F480621A847047134B00221A60134BC7
:10086C001A8C22F480621204120C1A8446F60102CD
:10087C009A831A8C92B242F480721A841A8A22F0E9
:10088C0008021204120C1A820A4B1B78002BBED1E0
:10089C00064A93899BB243F008039381B7E7064B52
:1008AC0000221A60BFE700BFF4000020002C0140BA
:1008BC00F8000020F0000020FC000020264B1B8AD2
:1008CC0013F0080F21D0244B9B8913F0080F1CD078
:1008DC00214A938F99B2214B1B684AF6C87000FBD2
:1008EC000313A3F51943B13B1D490B60938923F006
:1008FC0008031B041B0C9381138C23F480731B04BF
:10090C001B0C138446F603039383134B1B8A13F0BF
:10091C00100F18D0104BB3F840309BB242F20F724C
:10092C00934202D90F4B1B6873B10B4A138C23F4FF
:10093C0080531B041B0C1384074A138A23F01003E7
:10094C001B041B0C13827047034A138C9BB243F499
:10095C0080531384F0E700BF002C0140F40000200A
:10096C00FC000020F8000020F0B53D4B3D4ADA6158
:10097C0041F60C229A61A3F584333B4A1A603B4A38
:10098C005A6003F5806302F17E42A2F5C0426A3AD6
:10099C001A6002F1D04202F5BC0202F204625A6003
:1009AC0003F5005311229A8103221A854AF6C77265
:1009BC009A8546F668021A8346F603029A834FF428
:1009CC000042A3F844204FF400721A8441F288329A
:1009DC00A3F84020264E4027B78040F2BF32328029
:1009EC0024484FF49C720281234D2A812C22AA8127
:1009FC000C228281214A4FF0E06111614FF0080C0A
:100A0C00C2F834C01E4C672222814FF080410A810B
:100A1C004FF480720A830A8302F1E0224FF0007EC9
:100A2C00C2F800E04FF0006EC2F800E0C2F804C05B
:100A3C00576080275760328892B242F04002328071
:100A4C00AA8992B242F40052AA81828992B242F4EB
:100A5C0000528281012222800A801A80F0BD00BFE0
:100A6C000010024005000600424AA2A4AAA4444475
:100A7C000030014000480040004400400024014088
:100A8C00000800404FF08043988C80B203F500635F
:100A9C009B8C9BB218447047014B1870704700BF79
:100AAC001C0000200F4B187810F0810303D0812B11
:100ABC0018BF80F0810010F0420303D0422B18BF06
:100ACC0080F0420010F0240303D0242B18BF80F0D8
:100ADC00240010F0180303D0182B18BF80F0180056
:100AEC00704700BF0001002070B50446FFF7C6FD3B
:100AFC00154B1B68A34226D0144B1D68144B1E6863
:100B0C00FFF7D0FF024631462846FFF78FFC0E4B0D
:100B1C001C60204600F084F914F0070F13D10D4A25
:100B2C00936843F0010393600B4B986800F480507A
:100B3C000A4B1B68834206D0084B1860003818BF5C
:100B4C00012000F077F970BD140100200C01002089
:100B5C00100100200024014000080140200000206A
:100B6C0070B505460C4B1C682046FFF7BDFF8DB1D8
:100B7C006E1E094D04E02C68013EB6F1FF3F09D012
:100B8C002B68A342F7D12046FFF7AEFF2B68A34298
:100B9C00F9D0F0E770BD00BF04010020034BDB6C03
:100BAC0042F2C42000FB03F0000B7047002401400C
:100BBC00054BDB6813F0010F034B4FF0010214BF20
:100BCC005A611A61704700BF0008014080B2014BA6
:100BDC0098867047002C014080B2014B18877047F3
:100BEC00002C01400A4A138C23F005031B041B0C38
:100BFC00138428B1138C9BB243F001031384704708
:100C0C00034A138C9BB243F004031384704700BF58
:100C1C00002C01400A4A138C23F050031B041B0CBC
:100C2C00138428B1138C9BB243F040031384704798
:100C3C00034A138C9BB243F010031384704700BF1C
:100C4C00002C014008B54FF080439B8C9BB2104A9E
:100C5C001360104B9B8C9BB20F4A13600F4B0422FA
:100C6C001A600F4B1B780F4A938193889BB243F009
:100C7C0080039380A2F58062138A23F001031B0486
:100C8C001B0C1382084B1868FFF7B6FD08BD00BF9C
:100C9C000C01002000080040100100200801002079
:100CAC001C0000200030014004010020204B9B88D8
:100CBC0013F0800F0CD01E4B1B8913F0020F07D0C2
:100CCC001C4A1368013B1360D3B1194BFF229A8164
:100CDC00174B1B8913F0010F29D0154B9B89DBB2E5
:100CEC00144A1268032A19D0114A128912F0020F01
:100CFC001DD0114A1370114A1368013313607047E9
:100D0C000B4A00239381938823F080031B041B0C54
:100D1C009380138913F0010F05D17047084A1021F5
:100D2C0011615161E0E7024B9B89DBB2DCE7704754
:100D3C0000300140080100200001002004010020C7
:100D4C000008014008B5FFF70FFE0E4D49F640466E
:100D5C004FF4C87404E02046FFF702FFFFF728FFAA
:100D6C002B78002BF7D031460120FFF7F5FB2046FE
:100D7C00FFF7F6FE00210846FFF7EEFB00232B7071
:100D8C00E9E700BF6401002010F01F0F00D070478E
:100D9C0030B585B0FFF702FF0446FFF71FFD05468F
:100DAC00FFF770FE194B1B680293194B1B680193DC
:100DBC0000902B4622461749174800F0C9F8174BEC
:100DCC001B7813F0040F14BF2E216F21124A91705F
:100DDC0013F0080F14BF2E213C21D17013F0020F19
:100DEC0014BF2E215E21117113F0100F14BF2E2190
:100DFC007621517113F0010F14BF2E233E231046A0
:100E0C009371FFF727FC05B030BD00BF6C010020CB
:100E1C0068010020CC1B00081801002024000020D1
:100E2C0010B50446FFF73EFEFFF736FE2046FFF7EF
:100E3C00ABFF10BDB0B308B51B4A13680133136088
:100E4C00052B07DD134600221A6000210846FFF728
:100E5C0083FB08BD042B20D801A252F823F000BF5D
:100E6C00570E0008810E0008890E0008930E00082A
:100E7C009D0E00080D4B01221A70EAE7012108466D
:100E8C00FFF76AFBE5E701210320FFF765FBE0E7CD
:100E9C0001210220FFF760FBDBE701210420FFF7B3
:100EAC005BFBD6E7704700BF6001002064010020A7
:100EBC00014B1870704700BF2400002008B50D4B83
:100ECC001860B0F57A7F12D340F6B8314AF6E033A9
:100EDC0046F6781288428CBF18461046064B1B7893
:100EEC0013F0040F08BF0020FFF764FC08BD42F2AA
:100EFC001070F3E76801002024000020014B1860FB
:100F0C00704700BF6C010020014B1868704700BF90
:100F1C00280000200CB470B56FF000459CB020ACDC
:100F2C0054F8042B094E02910691234602A9019410
:100F3C000795CDE9045600F00BF90022029B1A70BC
:100F4C001CB0BDE8704002B0704700BF0802FFFF44
:100F5C000EB4034630B56FF000449CB01FA951F895
:100F6C00042B0A480A4D0293069301910B46006824
:100F7C0002A90794CDE9044500F0EAF80022029B8F
:100F8C001A701CB0BDE8304003B070472800002038
:100F9C000802FFFF2DE9F0478E6880469E420C4602
:100FAC001D461746086836D8B1F80CC01CF4906F73
:100FBC000DD135462A46394600F0A0FC0020A26827
:100FCC002368961B2B44A6602360BDE8F087D1E90B
:100FDC00041606EB460606EBD676A0EB01090133A8
:100FEC0076104B44B342324684BF1E4632461CF444
:100FFC00806F12D01146404600F03AFD824600B395
:10100C004A46216900F004FCA38923F4906343F061
:10101C008003A38106E01E46CCE7404600F08CFD21
:10102C00824650B1A6EB09030AEB09006661C4F8CD
:10103C0010A02060A3602E46BCE72169404600F05A
:10104C00C3FC0C23C8F80030A3894FF0FF3043F0E9
:10105C004003A381B9E700BF2DE9F04F936883B03B
:10106C009046002B6DD0176882460C4608680837EE
:10107C008D6843E0A38913F4906F2ED0D4E9041546
:10108C0005EB4505A0EB010B05EBD5750BEB06004D
:10109C006D100130A8422A4684BF05462A465B05DE
:1010AC0036D51146504600F0E3FC00283AD05A469B
:1010BC002169019000F0ACFBA289019B22F49062A3
:1010CC0042F08002A281A5EB0B0203EB0B006561E1
:1010DC00B346354623612060A2605A46494600F06B
:1010EC000DFCD8F80830A2682068551B58449E1B8C
:1010FC00A5602060C8F808601EB3083757E902964F
:10110C00AB46002EF9D0AE42B4D23546B346E4E736
:10111C00504600F011FD03460028D4D121695046F9
:10112C0000F052FC0C2300224FF0FF30CAF80030C4
:10113C00A38943F04003A381C8E9012203B0BDE8B1
:10114C00F08F0020C8F8040003B0BDE8F08F00BF9A
:10115C002DE9F04F8B4689899FB00C069046029082
:10116C0004D5DBF81020002A00F00D81002020218E
:10117C003022059398F8003001270B908DF8311030
:10118C008C4E8DF83220002B00F08680252B00F041
:10119C00F880454603E0252B00F0888025466B78C7
:1011AC006C1C002BF7D1B4EB080A75D042465346A1
:1011BC0059460298FFF7EEFE01306DD00B9B6A7812
:1011CC0053440B93002A67D000234FF0FF320134B5
:1011DC000693CDE908338DF85B301C93079206E03B
:1011EC002C46069B801B07FA00F0184306902546F8
:1011FC00052215F8011B304600F0C4FAAA46002857
:10120C00EED1069BD90644BF20228DF85B201A072D
:10121C0048BF2B22217848BF8DF85B202A2949D161
:10122C00059A11680432002905927FDB09916178D7
:10123C00A51C2E2957D0604C0322204600F0A2FAA0
:10124C00002869D04022069B001B02FA00F00343E1
:10125C00069305F101082B780622194657488DF89C
:10126C00303000F08FFA002866D0554B002B56D04A
:10127C0005AB00935A46534B06A90298AFF3008076
:10128C008146B9F1FF3F07D00B9B4B440B9398F869
:10129C000030002B7FF47AAFBBF80C305B064CBFF0
:1012AC004FF0FF300B981FB0BDE8F08FB4EB080A7D
:1012BC008AD07BE7A1F13002092A88BFA246B8D8B0
:1012CC00099B01E02C460135297803EB830302EBE3
:1012DC004303A1F13002092AAA46F3D92E2904F1BD
:1012EC0002050993A7D19AF801102A292ED1059B42
:1012FC000AF102001A680433002A079205939AF83F
:10130C0002100AF1030537DB2B4C824603222046E0
:10131C0000F038FA002895D1A84655469BE7059B66
:10132C00073323F0070308330593ADE7494243F035
:10133C000203099106937AE705AB00935A46214BB9
:10134C0006A9029800F0D4F881469AE70023A1F18F
:10135C003002092A079301D923E05546697803EB3B
:10136C00830302EB4303A1F13002092A05F1010AC0
:10137C00F3D9023507935EE74FF0FF3382460793AC
:10138C0059E7444620E74021039300F071FB039B8F
:10139C00CBF80000CBF8100030B14022CBF8142071
:1013AC00E4E6AA46013546E70C23029A4FF0FF30DB
:1013BC00136078E7041C00080C1C0008101C0008C3
:1013CC0000000000A10F00082DE9F0470C46096948
:1013DC00A56891468D42B8BF0D46156094F8431030
:1013EC0006461F46DDF8208011B16A1CC9F80020A2
:1013FC00236899065CD5D9F800200232C9F8002080
:10140C00236813F0060F19461DD1E1688A1A002AC9
:10141C00D8BF194617DD002504F1190A05E0E36869
:10142C00D9F800209B1AAB420CDD012352463946F9
:10143C003046C047013005F10105F0D14FF0FF30C7
:10144C00BDE8F087216894F84330003318BF0123BE
:10145C008A060AD53021E21882F8431094F8451018
:10146C005A1C224482F84310023304F143023946D9
:10147C003046C0470130E1D02368A26803F0060370
:10148C00042B21691DD08A4226DD4FF00009521A27
:10149C00914400251A3401E04D451DDA0123224602
:1014AC0039463046C047013005F10105F4D1C5E796
:1014BC0013F0060F13D094F84330003318BF0123F8
:1014CC00D3E7D9F80000E3688A42A3EB000323EAD0
:1014DC00E379DCDC002BDCDC0020BDE8F087E16884
:1014EC00D9F800208A1A002AD8BF194693DCAAE73B
:1014FC002DE9F0430C46097E85B06E290646174649
:10150C00984604F1430C0C986DD039D9732900F02E
:10151C00F48044D9752900F00281782940F00F81BC
:10152C0078232268DFF854E284F845300168150608
:10153C0051F8043B016040F1A180D10744BF42F057
:10154C0020022260002B00F093801022002184F8EE
:10155C00431060680028A060C0F2C680216821F0AA
:10156C0004012160002B40F0A280002840F0BE80D6
:10157C006546082A00F0AB80ACEB0503236141E023
:10158C00632900F0E3801AD8002938D0582940F09C
:10159C00D68084F845102268DFF8E4E1C6E76F29AD
:1015AC0000F0BD80702940F0CA8078232268DFF8F3
:1015BC00CCE142F02002226084F84530B6E7642981
:1015CC0002D0692940F0BB8022680368110603F140
:1015DC00040557D5196805600B46002959DB0A220A
:1015EC00DFF89CE1B5E7036822681D1D61690560A1
:1015FC0015061B6802D4500600F1BB80196000234D
:10160C0065462361CDF800803B4603AA214630464F
:10161C00FFF7DAFE013020D02A46236939463046DE
:10162C00C047013019D0226803989207E36819D596
:10163C001A1A002A16DD002504F1190904E0E368E2
:10164C0003981A1AAA420DDD01234A463946304640
:10165C00C047013005F10105F1D14FF0FF3005B065
:10166C00BDE8F0839842B8BF184605B0BDE8F083DA
:10167C002168102221F02001216067E7500648BF45
:10168C009BB25AE75106A5D5B3F90030056019464F
:10169C00A3E72D2061685B42002984F84300A16018
:1016AC0002DB22F0040222600A22DFF8D4E0654655
:1016BC0000E00B46B3FBF2F102FB11301EF8000008
:1016CC00934205F8010DF4D2082A7FF455AF236834
:1016DC00DB077FF551AF626823699A423FF74CAF45
:1016EC003023013D2B7047E7002BE0D19EF80030F2
:1016FC0004F1420584F842303BE703686268191D27
:10170C0001601D680021284600F03CF8002832D00A
:10171C00401B60602061002384F8433072E722682C
:10172C00036812F0800F03F104051AD01B680560E2
:10173C006F290CBF08220A22DFF844E006E70123D8
:10174C0084F84210236104F14205E4E701220368A6
:10175C0004F14205191D1B68016084F842302261B6
:10176C00D9E712F0400F0DBF1B6805601B880560A0
:10177C00DEE7198043E76068CCE700BF2C1C00084B
:10178C00181C0008830770B4CDB23DD0541E0AB3A8
:10179C000378AB421FD0431C05E014F1FF3419D37E
:1017AC000278AA4217D013F0030F184603F1010375
:1017BC00F3D1032C11D84CB30378AB420BD00444B7
:1017CC00431C02E00278AA4205D09C42184603F161
:1017DC000103F7D1002070BC704702460E02B6B26E
:1017EC002E4346EA0646136810467340A3F10131B6
:1017FC0021EA030313F0803F02F10402DCD1043C24
:10180C00032C1046EFD8D6E71446D2E72046E2E781
:10181C00844641EA000313F0030349D1403A23D331
:10182C000B6803604B6843608B688360CB68C36054
:10183C000B6903614B6943618B698361CB69C3613C
:10184C000B6A03624B6A43628B6A8362CB6AC36224
:10185C000B6B03634B6B43638B6B8363CB6BC3630C
:10186C0040304031403ADBD230320BD30B6803604E
:10187C004B6843608B688360CB68C3601030103159
:10188C00103AF3D20C3205D351F8043B40F8043B28
:10189C00043AF9D2043208D0D2071CBF11F8013B2C
:1018AC0000F8013B01D30B8803806046704700BFF2
:1018BC00082A13D38B07B1D010F00303AED0C3F1B9
:1018CC000403D21ADB071CBF11F8013B00F8013BE3
:1018DC00A4D331F8023B20F8023B9FE7043AD9D35A
:1018EC00013A11F8013B00F8013BF9D20B78037077
:1018FC004B7843708B788370604670478842F0B4A5
:10190C000DD98B1883420AD9841832B1224613F8A8
:10191C00014D994202F8014DF9D1F0BC70470F2AE4
:10192C000ED80346541E002AF7D001340C44013B58
:10193C0011F8012BA14203F8012FF9D1F0BC70472B
:10194C0040EA01039B073AD1A2F110073F0901F1CC
:10195C00200606EB071601F1100300F1100453F8F2
:10196C00105C103344F8105C53F81C5C103444F8D1
:10197C001C5C53F8185C44F8185C53F8145CB342C4
:10198C0044F8145CEBD17B1C1B0112F00C0F1944B6
:10199C0002F00F05034415D00E46043DAD0803EBD1
:1019AC00850C1C1F56F8047B44F8047F6445F9D160
:1019BC000135AD002B44294402F00302B2E7541E5A
:1019CC000346B2E72A46ADE700293AD038B551F8BC
:1019DC00043C0C1F002BB8BFE418054600F0E4F8DB
:1019EC00224B1A682AB1A2420DD921686018824292
:1019FC0021D0626028461C60BDE8384000F0D6B8A3
:101A0C00A34203D81A465368002BF9D11168501819
:101A1C00A04217D022D821686018834203BFD3E9B3
:101A2C0000030918C4E90013636054602846BDE83C
:101A3C00384000F0BBB8D2E900020144C4E90012FE
:101A4C00D8E7704720680144501883421160EDD1EB
:101A5C00D3E900030144C2E90013E7E70C2328464D
:101A6C002B60BDE8384000F0A1B800BF7001002029
:101A7C00F8B5CD1C25F0030508350C2D38BF0C2509
:101A8C00002D064633DBA94231D82A4F00F08CF8E2
:101A9C003A6852B113685B1B04D43FE023685B1BAC
:101AAC0029D522465468002CF8D1796800293BD0FE
:101ABC002946304600F066F8431C28D0C41C24F09C
:101ACC000304A04205D0211A304600F05BF8013027
:101ADC001DD02560304600F069F804F10B0020F0B1
:101AEC000700231DC21A01D01B1AA350F8BD0C22EB
:101AFC0000203260F8BD0B2B05D8A242636811D0D0
:101B0C005360E7E7144623601C442560E2E70C238E
:101B1C003046336000F04AF80020F8BD0B2BF1D8AA
:101B2C00144653683B60D5E7304600F02BF87860DC
:101B3C00BEE700BF7001002009B3F8B51446CAB166
:101B4C0006460D4600F034F8A04202D32F46384624
:101B5C00F8BD21463046FFF78BFF07460028F6D02C
:101B6C0022462946FFF754FE30462946FFF72CFF44
:101B7C003846F8BD2746FFF727FF3846F8BD114613
:101B8C00FFF776BF38B50023064C054608462360A0
:101B9C00FEF76CFB431C00D038BD2368002BFBD038
:101BAC002B6038BD78010020704700BF704700BF24
:101BBC0051F8043C181F002BBCBF0B58C0187047C1
:101BCC000D5B6F3C5E763E5D20766F6C7461676575
:101BDC003D2534642064697374616E63653D2564CE
:101BEC0020636F756E743D256420583D2564205923
:101BFC003D25642020200000232D302B20000000E8
:101C0C00686C4C00656667454647000030313233DE
:101C1C0034353637383941424344454600000000DC
:101C2C003031323334353637383961626364656646
:011C3C0000A7
:101C400090000020000000000000000000000000E4
:101C5000010203040607080900A24A0480FFFFFFEF
:101C6000001000001FFFFFFF2C00002000000000FC
:101C70000000000000000000000000000000000064
:101C80000000000000000000000000000000000054
:101C90000000000000000000000000000000000044
:101CA0000000000000000000000000000000000034
:101CB0000000000000000000000000000000000024
:0C1CC00000000000000000000000000018
:040000050800017579
:00000001FF
