:020000040800F2
:10000000005000200D010008110100081301000834
:10001000290100082B010008410100080000000030
:100020000000000000000000000000005701000870
:1000300059010008000000005B0100085D0700088E
:1000400071010008710100087101000871010008C8
:1000500071010008710100087101000871010008B8
:1000600071010008710100087101000871010008A8
:100070007101000871010008710100087101000898
:100080007101000871010008710100087101000888
:100090007101000871010008710100087101000878
:1000A0007101000871010008710100087101000868
:1000B0007101000871010008710100087101000858
:1000C0007101000871010008710100087101000848
:1000D00071010008C504000871010008350400081A
:1000E00071010008710100087101000800000000A2
:1000F0000000000000000000000000000000000000
:1001000000000000000000005FF808F114480047FC
:10011000FEE71EF0040F0CBFEFF30880EFF3098039
:100120007146104A1047FEE7FEE71EF0040F0CBFB1
:10013000EFF30880EFF3098071460B4A1047FEE7A2
:100140001EF0040F0CBFEFF30880EFF30980714637
:10015000064A1047FEE7FEE7FEE7FEE770470000AD
:1001600075010008270100083F010008550100083B
:10017000FEE7FFFF07B500F04FF9224B224A234963
:100180008B4228D30021224B224A934228D300F0ED
:100190004FF9684601A900F037F972B600261E4DE6
:1001A0001E4C641BA410B4421DDC00261C4D1D4CCB
:1001B000641BA410B4421BDC62B6DDE9000100F050
:1001C000D5FA0646184D194C641BA410002C14DCFB
:1001D000304600F041F852F8040B43F8040BCFE727
:1001E00043F8041BD1E755F8043B98470136DAE79A
:1001F00055F8043B98470136DCE7013C55F82430BC
:100200009847E3E7000000209C1600088C000020BF
:100210008C0000203001002058020008580200081D
:100220005802000858020008580200085802000846
:100230009C160008000000208C0000209C1600087E
:1002400000000000000000008C00002030010020B1
:080250000000000000000000A6
:1002580008B500F0C3F80000374B82B01A6842F0C6
:1002680001021A605968354A0A405A601A6822F031
:10027800847222F480321A601A6822F480221A608A
:100288005A6822F4FE025A604FF41F029A60002254
:10029800009201921A6842F480321A601A6802F4D5
:1002A80000320192009A01320092019A1AB9009A1A
:1002B800B2F5A06FF2D11A6812F4003218BF012209
:1002C8000192019A012A30D11D4A116841F01001AA
:1002D8001160116821F003011160116841F00201F9
:1002E80011605A685A605A685A605A6842F48062C3
:1002F8005A605A6822F47C125A605A6842F4E8122A
:100308005A601A6842F080721A601A689201FCD525
:100318005A6822F003025A605A6842F002025A6090
:100328005A6802F00C02082AFAD14FF00062054B15
:100338009A6002B0704700BF001002400000FFF84A
:100348000020024000ED00E0104B11495A6802F00D
:100358000C02082A0AD00F4A0A605B680E4AC3F3E7
:100368000313D25C0B68D3400B6070475A68586817
:10037800C2F38342C00302F1020202D40748424397
:10038800EAE758688003F9D40248F8E70010024009
:100398001000002000127A000000002000093D0033
:1003A8000B4A08B51168034609B90A491160106873
:1003B8000333094923F0030303448B4206D900F0B1
:1003C800DBFA0C2303604FF0FF3008BD1360FCE735
:1003D8008C00002030010020004C0020BFF34F8F1C
:1003E8000549064BCA6802F4E0621343CB60BFF3C9
:1003F8004F8F00BFFDE700BF00ED00E00400FA05E5
:1004080001230360014B0B60704700BF14000020FC
:1004180008B5FFF721FF024A024B9A6008BD00BFEA
:100428000000000800ED00E0FFF78EBF144B1B88AA
:1004380013F0800F00D17047124B1B68BBB15A1CD8
:1004480010490A601978104A12684AB1013A0E4BED
:100458001A600AB90B4B1A6089B2094B9980704728
:100468005B78002BF8D1074B00221A60F4E7044AA6
:10047800938923F080031B041B0C9381DBE700BFE7
:10048800004800409400002098000020084B1B689A
:100498000BB100207047064B1860064B1960064ADE
:1004A80093899BB243F0800393810120704700BF7A
:1004B800940000209800002000480040144B1B883E
:1004C80013F0800F00D17047124B1B68BBB15A1C48
:1004D80010490A601978104A12684AB1013A0E4B5D
:1004E8001A600AB90B4B1A6089B2094B9980704798
:1004F8005B78002BF8D1074B00221A60F4E7044A16
:10050800938923F080031B041B0C9381DBE700BF56
:10051800003801409C000020A0000020084B1B6808
:100528000BB100207047064B1860064B1960064A4D
:1005380093899BB243F0800393810120704700BFE9
:100548009C000020A00000200038014008B50021D0
:10055800FFF7E4FF08BD0000134B1B68834222D05D
:1005680010B50446104B186000F0E6F914F00F0FB0
:1005780018D10E4A936843F0010393600C4B9B68B3
:1005880042F2603018400B4A126882420AD0094A87
:10059800106013F4005F18BF40F08000C0F34410EF
:1005A80000F0DCF910BD7047B000002000240140C5
:1005B800000C01401C000020014BB3F902007047F9
:1005C800A4000020014BB3F900007047A4000020EC
:1005D800014BB3F904007047A400002010B4314B5C
:1005E800314A5A60314AF02182F8231000229A6079
:1005F80007221A602E4B4FF48022DA6144F21C2243
:100608009A6101225A61A3F584332A4A1A602A4A58
:100618005A6003F58063294A1A6002F17C4202F5A8
:10062800D1625A60264A2749516042F260321A6103
:10063800254840F27123038124494FF49C730B81B0
:100648000C238B818381224B224A1A614FF40012BA
:10065800DA6242F207525A634FF480725A609A6023
:1006680003F55C4308334FF4B4621A601A4A9A607F
:100678001A4ADA6003225A60194A202454608024F6
:100688005460828992B242F4005282818A8992B27D
:1006980042F400528A811A6842F001021A6010BCC2
:1006A800704700BF10E000E03F19010000ED00E0D6
:1006B8000010024022222202A444444400448448F8
:1006C80000100140444424440038014000480040E0
:1006D800002401400000E03F4C240140A400002019
:1006E80000E100E0054B1B8813F0800F04D080B2B6
:1006F800024B988001207047002070470048004056
:1007080010F0010F054B4FF4005214BF1A615A61E3
:100718004008034B1861C0435861704700100140FE
:100728000008014038B570B10546094B1A681544F0
:100738001B689D4206D0064C2068FFF70DFF236812
:10074800AB42F9D138BD024B1868FFF705FFF9E74E
:10075800AC000020024A136801331360704700BFE1
:10076800AC00002008B5FFF739FF00242046FFF74A
:10077800D9FFFBE708B530B91E4B1B6833B1013B05
:100788001C4A136001E01B4A106008BD194B4FF466
:100798007A721A60FFF71CFF40F6B963984224DDAD
:1007A80040F6C463984222DD40F6CE6398421ADDD3
:1007B80040F6D863984214DD40F6E26398420EDDB5
:1007C80040F6EC63984208DD40F6F6639842D4BFE1
:1007D800C0208020FFF794FFD7E7E020FAE7F02059
:1007E800F8E7F820F6E7FC20F4E7FF20F2E7FE2020
:1007F800F0E700BFB800002010F07F0F00D070476E
:1008080030B583B0FFF7D8FE0446FFF7DBFE054698
:10081800FFF7DEFE00902B4622461749174800F0E6
:10082800CFF8174B1B7813F0040F14BF2E216F213C
:10083800124A917713F0080F14BF2E213C2182F839
:10084800201013F0100F14BF2E21762182F82110EA
:1008580013F0020F14BF2E215E2182F8221013F02C
:10086800010F14BF2E233E23104682F82330FFF7D2
:100878006DFE03B030BD00BF38160008BC00002074
:100888002400002010F0030F00D0704710B5FFF7C8
:1008980093FE0446094BB3F9003083420DD0084853
:1008A80004F03F030370A31163F07F034370022138
:1008B800FFF7ECFD08B1014B1C8010BD20000020A3
:1008C8002001002010F0030F00D0704710B5FFF78B
:1008D80079FE0446094BB3F9003083420DD008482D
:1008E80004F03F030370A31163F03F034370022138
:1008F800FFF7CCFD08B1014B1C8010BD2200002081
:100908002001002010F0030F10D108B5084B18780B
:10091800084B1B78834208D040F04000FFF7E2FE06
:1009280018B1034B1A78034B1A7008BD704700BF03
:1009380024000020B400002010B50446FFF75CFF37
:100948002046FFF7DFFF601EFFF79CFFA01EFFF7A2
:10095800B9FF0020FFF70EFF10BD000008B5054BDA
:10096800187080F01F00FFF7CBFE41F28830FFF7C8
:1009780001FF08BD24000020014B1868704700BF24
:10098800280000200CB470B56FF000459CB020AC76
:1009980054F8042B094E02910691234602A90194AA
:1009A8000795CDE9045600F00BF90022029B1A7056
:1009B8001CB0BDE8704002B0704700BF0802FFFFDE
:1009C8000EB4034630B56FF000449CB01FA951F82F
:1009D800042B0A480A4D0293069301910B460068BE
:1009E80002A90794CDE9044500F0EAF80022029B29
:1009F8001A701CB0BDE8304003B0704728000020D2
:100A08000802FFFF2DE9F0478E6880469E420C469B
:100A18001D461746086836D8B1F80CC01CF4906F0C
:100A28000DD135462A46394600F0A0FC0020A268C0
:100A38002368961B2B44A6602360BDE8F087D1E9A4
:100A4800041606EB460606EBD676A0EB0109013341
:100A580076104B44B342324684BF1E4632461CF4DD
:100A6800806F12D01146404600F03AFD824600B32E
:100A78004A46216900F004FCA38923F4906343F0FB
:100A88008003A38106E01E46CCE7404600F08CFDBB
:100A9800824650B1A6EB09030AEB09006661C4F867
:100AA80010A02060A3602E46BCE72169404600F0F4
:100AB800C3FC0C23C8F80030A3894FF0FF3043F083
:100AC8004003A381B9E700BF2DE9F04F936883B0D5
:100AD8009046002B6DD0176882460C460868083788
:100AE8008D6843E0A38913F4906F2ED0D4E90415E0
:100AF80005EB4505A0EB010B05EBD5750BEB0600E7
:100B08006D100130A8422A4684BF05462A465B0577
:100B180036D51146504600F0E3FC00283AD05A4634
:100B28002169019000F0ACFBA289019B22F490623C
:100B380042F08002A281A5EB0B0203EB0B0065617A
:100B4800B346354623612060A2605A46494600F004
:100B58000DFCD8F80830A2682068551B58449E1B25
:100B6800A5602060C8F808601EB3083757E90296E8
:100B7800AB46002EF9D0AE42B4D23546B346E4E7D0
:100B8800504600F011FD03460028D4D12169504693
:100B980000F052FC0C2300224FF0FF30CAF800305E
:100BA800A38943F04003A381C8E9012203B0BDE84B
:100BB800F08F0020C8F8040003B0BDE8F08F00BF34
:100BC8002DE9F04F8B4689899FB00C06904602901C
:100BD80004D5DBF81020002A00F00D810020202128
:100BE8003022059398F8003001270B908DF83110CA
:100BF8008C4E8DF83220002B00F08680252B00F0DB
:100C0800F880454603E0252B00F0888025466B7860
:100C18006C1C002BF7D1B4EB080A75D0424653463A
:100C280059460298FFF7EEFE01306DD00B9B6A78AB
:100C380053440B93002A67D000234FF0FF3201344E
:100C48000693CDE908338DF85B301C93079206E0D4
:100C58002C46069B801B07FA00F018430690254691
:100C6800052215F8011B304600F0C4FAAA460028F0
:100C7800EED1069BD90644BF20228DF85B201A07C7
:100C880048BF2B22217848BF8DF85B202A2949D1FB
:100C9800059A11680432002905927FDB0991617871
:100CA800A51C2E2957D0604C0322204600F0A2FA3A
:100CB800002869D04022069B001B02FA00F003437B
:100CC800069305F101082B780622194657488DF836
:100CD800303000F08FFA002866D0554B002B56D0E4
:100CE80005AB00935A46534B06A90298AFF3008010
:100CF8008146B9F1FF3F07D00B9B4B440B9398F803
:100D08000030002B7FF47AAFBBF80C305B064CBF89
:100D18004FF0FF300B981FB0BDE8F08FB4EB080A16
:100D28008AD07BE7A1F13002092A88BFA246B8D849
:100D3800099B01E02C460135297803EB830302EB7C
:100D48004303A1F13002092AAA46F3D92E2904F156
:100D580002050993A7D19AF801102A292ED1059BDB
:100D68000AF102001A680433002A079205939AF8D8
:100D780002100AF1030537DB2B4C8246032220467A
:100D880000F038FA002895D1A84655469BE7059B00
:100D9800073323F0070308330593ADE7494243F0CF
:100DA8000203099106937AE705AB00935A46214B53
:100DB80006A9029800F0D4F881469AE70023A1F129
:100DC8003002092A079301D923E05546697803EBD5
:100DD800830302EB4303A1F13002092A05F1010A5A
:100DE800F3D9023507935EE74FF0FF338246079346
:100DF80059E7444620E74021039300F071FB039B29
:100E0800CBF80000CBF8100030B14022CBF814200A
:100E1800E4E6AA46013546E70C23029A4FF0FF3074
:100E2800136078E760160008681600086C1600085A
:100E3800000000000D0A00082DE9F0470C4609697A
:100E4800A56891468D42B8BF0D46156094F84310C9
:100E580006461F46DDF8208011B16A1CC9F800203B
:100E6800236899065CD5D9F800200232C9F8002019
:100E7800236813F0060F19461DD1E1688A1A002A63
:100E8800D8BF194617DD002504F1190A05E0E36803
:100E9800D9F800209B1AAB420CDD01235246394693
:100EA8003046C047013005F10105F0D14FF0FF3061
:100EB800BDE8F087216894F84330003318BF012358
:100EC8008A060AD53021E21882F8431094F84510B2
:100ED8005A1C224482F84310023304F14302394673
:100EE8003046C0470130E1D02368A26803F006030A
:100EF800042B21691DD08A4226DD4FF00009521AC1
:100F0800914400251A3401E04D451DDA012322469B
:100F180039463046C047013005F10105F4D1C5E72F
:100F280013F0060F13D094F84330003318BF012391
:100F3800D3E7D9F80000E3688A42A3EB000323EA69
:100F4800E379DCDC002BDCDC0020BDE8F087E1681D
:100F5800D9F800208A1A002AD8BF194693DCAAE7D4
:100F68002DE9F0430C46097E85B06E2906461746E2
:100F7800984604F1430C0C986DD039D9732900F0C8
:100F8800F48044D9752900F00281782940F00F8156
:100F980078232268DFF854E284F8453001681506A2
:100FA80051F8043B016040F1A180D10744BF42F0F1
:100FB80020022260002B00F093801022002184F888
:100FC800431060680028A060C0F2C680216821F044
:100FD80004012160002B40F0A280002840F0BE8070
:100FE8006546082A00F0AB80ACEB0503236141E0BD
:100FF800632900F0E3801AD8002938D0582940F036
:10100800D68084F845102268DFF8E4E1C6E76F2946
:1010180000F0BD80702940F0CA8078232268DFF88C
:10102800CCE142F02002226084F84530B6E764291A
:1010380002D0692940F0BB8022680368110603F1D9
:10104800040557D5196805600B46002959DB0A22A3
:10105800DFF89CE1B5E7036822681D1D616905603A
:1010680015061B6802D4500600F1BB8019600023E6
:1010780065462361CDF800803B4603AA21463046E9
:10108800FFF7DAFE013020D02A4623693946304678
:10109800C047013019D0226803989207E36819D530
:1010A8001A1A002A16DD002504F1190904E0E3687C
:1010B80003981A1AAA420DDD01234A4639463046DA
:1010C800C047013005F10105F1D14FF0FF3005B0FF
:1010D800BDE8F0839842B8BF184605B0BDE8F08374
:1010E8002168102221F02001216067E7500648BFDF
:1010F8009BB25AE75106A5D5B3F9003005601946E9
:10110800A3E72D2061685B42002984F84300A160B1
:1011180002DB22F0040222600A22DFF8D4E06546EE
:1011280000E00B46B3FBF2F102FB11301EF80000A1
:10113800934205F8010DF4D2082A7FF455AF2368CD
:10114800DB077FF551AF626823699A423FF74CAFDE
:101158003023013D2B7047E7002BE0D19EF800308B
:1011680004F1420584F842303BE703686268191DC0
:1011780001601D680021284600F03CF8002832D0A4
:10118800401B60602061002384F8433072E72268C6
:10119800036812F0800F03F104051AD01B6805607C
:1011A8006F290CBF08220A22DFF844E006E7012372
:1011B80084F84210236104F14205E4E70122036840
:1011C80004F14205191D1B68016084F84230226150
:1011D800D9E712F0400F0DBF1B6805601B8805603A
:1011E800DEE7198043E76068CCE700BF881600088F
:1011F80074160008830770B4CDB23DD0541E0AB3EC
:101208000378AB421FD0431C05E014F1FF3419D317
:101218000278AA4217D013F0030F184603F101030E
:10122800F3D1032C11D84CB30378AB420BD0044450
:10123800431C02E00278AA4205D09C42184603F1FA
:101248000103F7D1002070BC704702460E02B6B207
:101258002E4346EA0646136810467340A3F101314F
:1012680021EA030313F0803F02F10402DCD1043CBD
:10127800032C1046EFD8D6E71446D2E72046E2E71B
:10128800844641EA000313F0030349D1403A23D3CB
:101298000B6803604B6843608B688360CB68C360EE
:1012A8000B6903614B6943618B698361CB69C361D6
:1012B8000B6A03624B6A43628B6A8362CB6AC362BE
:1012C8000B6B03634B6B43638B6B8363CB6BC363A6
:1012D80040304031403ADBD230320BD30B680360E8
:1012E8004B6843608B688360CB68C36010301031F3
:1012F800103AF3D20C3205D351F8043B40F8043BC2
:10130800043AF9D2043208D0D2071CBF11F8013BC5
:1013180000F8013B01D30B8803806046704700BF8B
:10132800082A13D38B07B1D010F00303AED0C3F152
:101338000403D21ADB071CBF11F8013B00F8013B7C
:10134800A4D331F8023B20F8023B9FE7043AD9D3F3
:10135800013A11F8013B00F8013BF9D20B78037010
:101368004B7843708B788370604670478842F0B43E
:101378000DD98B1883420AD9841832B1224613F842
:10138800014D994202F8014DF9D1F0BC70470F2A7E
:101398000ED80346541E002AF7D001340C44013BF2
:1013A80011F8012BA14203F8012FF9D1F0BC7047C5
:1013B80040EA01039B073AD1A2F110073F0901F166
:1013C800200606EB071601F1100300F1100453F88C
:1013D800105C103344F8105C53F81C5C103444F86B
:1013E8001C5C53F8185C44F8185C53F8145CB3425E
:1013F80044F8145CEBD17B1C1B0112F00C0F194450
:1014080002F00F05034415D00E46043DAD0803EB6A
:10141800850C1C1F56F8047B44F8047F6445F9D1F9
:101428000135AD002B44294402F00302B2E7541EF3
:101438000346B2E72A46ADE700293AD038B551F855
:10144800043C0C1F002BB8BFE418054600F0E4F874
:10145800224B1A682AB1A2420DD92168601882422B
:1014680021D0626028461C60BDE8384000F0D6B83C
:10147800A34203D81A465368002BF9D111685018B3
:10148800A04217D022D821686018834203BFD3E94D
:1014980000030918C4E90013636054602846BDE8D6
:1014A800384000F0BBB8D2E900020144C4E9001298
:1014B800D8E7704720680144501883421160EDD185
:1014C800D3E900030144C2E90013E7E70C232846E7
:1014D8002B60BDE8384000F0A1B800BF240100200F
:1014E800F8B5CD1C25F0030508350C2D38BF0C25A3
:1014F800002D064633DBA94231D82A4F00F08CF87C
:101508003A6852B113685B1B04D43FE023685B1B45
:1015180029D522465468002CF8D1796800293BD097
:101528002946304600F066F8431C28D0C41C24F035
:101538000304A04205D0211A304600F05BF80130C0
:101548001DD02560304600F069F804F10B0020F04A
:101558000700231DC21A01D01B1AA350F8BD0C2284
:1015680000203260F8BD0B2B05D8A242636811D069
:101578005360E7E7144623601C442560E2E70C2328
:101588003046336000F04AF80020F8BD0B2BF1D844
:10159800144653683B60D5E7304600F02BF8786076
:1015A800BEE700BF2401002009B3F8B51446CAB14C
:1015B80006460D4600F034F8A04202D32F463846BE
:1015C800F8BD21463046FFF78BFF07460028F6D0C6
:1015D80022462946FFF754FE30462946FFF72CFFDE
:1015E8003846F8BD2746FFF727FF3846F8BD1146AD
:1015F800FFF776BF38B50023064C0546084623603A
:10160800FEF7CEFE431C00D038BD2368002BFBD06C
:101618002B6038BD2C010020704700BF704700BF09
:1016280051F8043C181F002BBCBF0B58C01870475A
:101638000D783D25346420793D25346420763D2598
:10164800336420627574746F6E733D5B6F203C76F3
:101658005E3E5D2000000000232D302B200000009E
:10166800686C4C0065666745464700003031323388
:101678003435363738394142434445460000000086
:1016880030313233343536373839616263646566F0
:011698000051
:10169C000000000000000000010203040607080916
:1016AC0000A24A049000002000000000602300000B
:1016BC00FFFFFFFF1FFFFFFF2C00002000000000BA
:1016CC00000000000000000000000000000000000E
:1016DC0000000000000000000000000000000000FE
:1016EC0000000000000000000000000000000000EE
:1016FC0000000000000000000000000000000000DE
:10170C0000000000000000000000000000000000CD
:0C171C00000000000000000000000000C1
:040000050800017579
:00000001FF
